:020000040000FA
:0400000026EF00F0F7
:06000800318263ED03F0FC
:100018003180E0CF2BF09EAA14EF00F016EF00F02D
:1000280022EF00F0ABA21BEF00F01DEF00F020EF75
:1000380000F0AB980000AB8868EC03F02BC0E0FF41
:080048003190100034EF03F0C9
:1006000000002EC030F02F2A2F04D96EDA6A302A6B
:100610003004E16EE26ADFCFE7FFE750D8A413EFC2
:1006200003F015EF03F003EF03F01200948C948EA7
:10063000AC98B896AC94330EAF6EAB8E9E989E9AE3
:10064000AC8AAB989D989F989D9A9F9A12003FEC18
:1006500003F0170E2E6E66EC03F02F6E01EC03F024
:1006600029EF03F026EF00F000EE01F02A0EEE6A0B
:10067000E806FDE131903192000127EF03F05BECD9
:1006800003F05FEC03F016EC03F055EC03F04AECDA
:1006900003F0120092680E0EC16EC08E070EC012DB
:1006A000000EC46E000EC36E12009494090EBD6E4F
:1006B0009E949F841200D38CD38AD3981200D08E3C
:1006C000F28EF28C1200060031921100030E12001D
:0206D000120016
:020000040020DA
:08000000FFFFFFFFFFFFFFFF00
:020000040030CA
:0E000000FF881F00FF8381FF0FC00FE00F403D
:00000001FF
